:020000020000FC
:10000000E5E2F0E00994189518951895189518955B
:100010001895189518951895189518951895189578
:100020001895189518951895189518951895189568
:100030001895189518951895189518951895189558
:1000400018951895189518951895E0E8F0E090E047
:100050009193E1E8F0E09CE09193E9E8F0E092E030
:100060009193E8E8F0E090E79193F894A89598E1EF
:10007000E0E6F0E0908399E290837894EEE5F0E09A
:1000800098E09193EDE5F0E09FEF9193A0E0B9E067
:1000900000E080E098E00E930197E9F7E4E2F0E0F9
:1000A0009FE39193E5E2F0E090E09193E7E2F0E0E6
:1000B0009FE39193E8E2F0E090E09193EAE2F0E0D0
:1000C00090EC9193EBE2F0E09CE39193E6E3F0E0B7
:1000D000908191FFFDCFE6E3F0E090819260908304
:1000E000A895E0E0F1E0908191609083E9E2F0E092
:1000F000908192FD05C0E0E0F1E090819E7F9083C9
:10010000E0E0F1E0908190FB91F99083E0E0F1E094
:10011000908191609083E9E2F0E0908193FD05C0C9
:10012000E0E0F1E090819E7F9083E0E0F1E090815B
:1001300090FB92F99083E0E0F1E0908191609083F0
:10014000E9E2F0E0908194FD05C0E0E0F1E090810B
:100150009E7F9083E0E0F1E0908190FB93F99083A3
:10016000E0E0F1E0908191609083E9E2F0E090813D
:1001700095FD05C0E0E0F1E090819E7F9083E0E096
:10018000F1E0908190FB94F99083E0E0F1E09081C0
:1001900091609083E0E0F1E090819F7D9083E0E0CA
:1001A000F1E0908190FB96F99083E9E2F0E0908194
:1001B00093FF05C0E0E0F1E090819F7B9083E9E24E
:1001C000F0E0908194FF05C0E0E0F1E090819F7B3A
:1001D0009083E9E2F0E0908195FF05C0E0E0F1E076
:1001E00090819F7B9083E0E0F1E0908196FF05C0D5
:1001F000E0E0F1E0908190629083E0E0F1E09081B6
:1002000090FB96F99083E9E2F0E0908192FD05C0C1
:10021000E0E0F1E090819F7B9083E9E2F0E0908163
:1002200093FF05C0E0E0F1E090819F7B9083E9E2DD
:10023000F0E0908194FF05C0E0E0F1E090819F7BC9
:100240009083E0E0F1E0908196FF05C0E0E0F1E00E
:10025000908190629083E0E0F1E0908190FB96F9CC
:100260009083E9E2F0E0908192FF05C0E0E0F1E0E8
:1002700090819F7B9083E9E2F0E0908193FD05C03F
:10028000E0E0F1E090819F7B9083E9E2F0E09081F3
:1002900095FD05C0E0E0F1E090819F7B9083E0E078
:1002A000F1E0908196FF05C0E0E0F1E0908190627E
:1002B0009083E0E0F1E0908190FB96F99083E9E291
:1002C000F0E0908192FF05C0E0E0F1E090819F7B3B
:1002D0009083E9E2F0E0908194FD05C0E0E0F1E078
:1002E00090819F7B9083E0E0F1E0908196FF05C0D4
:1002F000E0E0F1E0908190629083E0E0F1E09081B5
:1003000095FB90F99083E0E0F1E0908190FBEBE2C7
:10031000F0E0908196F99083E0E0F1E090819160C7
:100320009083E0E0F1E090819F779083E0E0F1E05E
:10033000908190FBE1E0F1E0908190F99083E9E217
:10034000F0E0908192FF05C0E1E0F1E090819E7FB6
:100350009083E9E2F0E0908193FF05C0E1E0F1E0F5
:1003600090819E7F9083E1E0F1E0908190FF05C055
:10037000E0E0F1E0908190689083E0E0F1E090812E
:1003800090FBE1E0F1E0908190F99083E9E2F0E008
:10039000908192FF05C0E1E0F1E090819E7F908323
:1003A000E9E2F0E0908194FF05C0E1E0F1E09081A6
:1003B0009E7F9083E9E2F0E0908195FF05C0E1E047
:1003C000F1E090819E7F9083E1E0F1E0908190FFE9
:1003D00005C0E0E0F1E0908190689083E0E0F1E01A
:1003E000908190FBE1E0F1E0908190F99083E9E267
:1003F000F0E0908192FF05C0E1E0F1E090819E7F06
:100400009083E9E2F0E0908194FD05C0E1E0F1E045
:1004100090819E7F9083E9E2F0E0908195FD05C098
:10042000E1E0F1E090819E7F9083E1E0F1E0908156
:1004300090FF05C0E0E0F1E0908190689083E0E0FB
:10044000F1E0908190FBE1E0F1E0908190F9908300
:10045000E9E2F0E0908192FD05C0E1E0F1E09081F9
:100460009E7F9083E9E2F0E0908193FF05C0E1E098
:10047000F1E090819E7F9083E9E2F0E0908194FF2B
:1004800005C0E1E0F1E090819E7F9083E1E0F1E042
:10049000908190FF05C0E0E0F1E09081906890834A
:1004A000E0E0F1E0908197FB90F99083E0E0F1E0EB
:1004B000908190FBEBE2F0E0908197F99083E0E08F
:1004C000F1E0908191609083E1E0F1E090819D7F87
:1004D0009083E0E0F1E0908190FBE1E0F1E0908139
:1004E00092F99083E9E2F0E0908192FF05C0E1E0AB
:1004F000F1E090819B7F9083E9E2F0E0908194FFAE
:1005000005C0E1E0F1E090819B7F9083E1E0F1E0C4
:10051000908192FF05C0E1E0F1E0908192609083CC
:10052000E0E0F1E0908190FBE1E0F1E0908192F970
:100530009083E9E2F0E0908192FF05C0E1E0F1E014
:1005400090819B7F9083E9E2F0E0908194FD05C06B
:10055000E1E0F1E090819B7F9083E9E2F0E090811F
:1005600095FD05C0E1E0F1E090819B7F9083E1E0A3
:10057000F1E0908192FF05C0E1E0F1E090819260AE
:100580009083E0E0F1E0908190FBE1E0F1E0908188
:1005900092F99083E9E2F0E0908192FF05C0E1E0FA
:1005A000F1E090819B7F9083E9E2F0E0908193FD00
:1005B00005C0E1E0F1E090819B7F9083E9E2F0E00B
:1005C000908194FD05C0E1E0F1E090819B7F9083F4
:1005D000E1E0F1E0908192FF05C0E1E0F1E090817F
:1005E00092609083E0E0F1E0908190FBE1E0F1E047
:1005F000908192F99083E9E2F0E0908192FD05C04C
:10060000E1E0F1E090819B7F9083E9E2F0E090816E
:1006100093FF05C0E1E0F1E090819B7F9083E9E2E8
:10062000F0E0908194FF05C0E1E0F1E090819B7FD4
:100630009083E1E0F1E0908192FF05C0E1E0F1E01C
:10064000908192609083E1E0F1E0908191FBE0E0A5
:10065000F1E0908190F99083E0E0F1E0908190FBEF
:10066000E5E2F0E0908190F99083E0E0F1E09081A4
:1006700091609083E1E0F1E09081977F9083E0E0EA
:10068000F1E0908190FBE1E0F1E0908194F99083BA
:10069000E9E2F0E0908193FF05C0E1E0F1E09081B4
:1006A0009F7E9083E9E2F0E0908194FF05C0E1E055
:1006B000F1E090819F7E9083E9E2F0E0908195FFE8
:1006C00005C0E1E0F1E090819F7E9083E1E0F1E000
:1006D000908194FF05C0E1E0F1E090819860908303
:1006E000E0E0F1E0908190FBE1E0F1E0908194F9AD
:1006F0009083E9E2F0E0908192FF05C0E1E0F1E053
:1007000090819F7E9083E9E2F0E0908193FD05C0A7
:10071000E1E0F1E090819F7E9083E9E2F0E090815A
:1007200094FF05C0E1E0F1E090819F7E9083E9E2D3
:10073000F0E0908195FD05C0E1E0F1E090819F7EC1
:100740009083E1E0F1E0908194FF05C0E1E0F1E009
:10075000908198609083E0E0F1E0908190FBE1E08F
:10076000F1E0908194F99083E9E2F0E0908192FFCA
:1007700005C0E1E0F1E090819F7E9083E9E2F0E046
:10078000908193FF05C0E1E0F1E090819F7E90832E
:10079000E9E2F0E0908194FD05C0E1E0F1E09081B4
:1007A0009F7E9083E1E0F1E0908194FF05C0E1E05D
:1007B000F1E0908198609083E0E0F1E0908190FB1F
:1007C000E1E0F1E0908194F99083E9E2F0E090813A
:1007D00092FF05C0E1E0F1E090819F7E9083E9E225
:1007E000F0E0908194FD05C0E1E0F1E090819F7E12
:1007F0009083E9E2F0E0908195FF05C0E1E0F1E04F
:1008000090819F7E9083E1E0F1E0908194FF05C0AC
:10081000E1E0F1E0908198609083E1E0F1E0908187
:1008200093FBE0E0F1E0908190F99083E0E0F1E06B
:10083000908190FBE5E2F0E0908191F99083E0E017
:10084000F1E0908191609083E1E0F1E090819F7D03
:100850009083E0E0F1E0908190FBE1E0F1E09081B5
:1008600096F99083E9E2F0E0908193FF05C0E1E022
:10087000F1E090819F7B9083E9E2F0E0908194FF2A
:1008800005C0E1E0F1E090819F7B9083E9E2F0E038
:10089000908195FF05C0E1E0F1E090819F7B90831E
:1008A000E1E0F1E0908196FF05C0E1E0F1E09081A8
:1008B00090629083E0E0F1E0908190FBE1E0F1E074
:1008C000908196F99083E9E2F0E0908192FF05C073
:1008D000E1E0F1E090819F7B9083E9E2F0E090819C
:1008E00093FF05C0E1E0F1E090819F7B9083E9E216
:1008F000F0E0908195FF05C0E1E0F1E090819F7B01
:100900009083E1E0F1E0908196FF05C0E1E0F1E045
:10091000908190629083E0E0F1E0908190FBE1E0D3
:10092000F1E0908196F99083E9E2F0E0908192FF06
:1009300005C0E1E0F1E090819F7B9083E9E2F0E087
:10094000908194FD05C0E1E0F1E090819F7B908370
:10095000E9E2F0E0908195FF05C0E1E0F1E09081EF
:100960009F7B9083E1E0F1E0908196FF05C0E1E09C
:10097000F1E0908190629083E1E0F1E0908195FB5D
:10098000E0E0F1E0908190F99083E0E0F1E0908187
:1009900090FBE5E2F0E0908192F99083E0E0F1E0F5
:1009A000908191609083E1E0F1E090819F77908366
:1009B000E0E0F1E0908190FBE2E0F1E0908190F9DD
:1009C0009083E9E2F0E0908192FF05C0E2E0F1E07F
:1009D00090819E7F9083E9E2F0E0908194FF05C0D2
:1009E000E2E0F1E090819E7F9083E9E2F0E0908187
:1009F00095FF05C0E2E0F1E090819E7F9083E2E008
:100A0000F1E0908190FF05C0E1E0F1E09081906815
:100A10009083E0E0F1E0908190FBE2E0F1E09081F2
:100A200090F99083E9E2F0E0908192FF05C0E2E066
:100A3000F1E090819E7F9083E9E2F0E0908193FD68
:100A400005C0E2E0F1E090819E7F9083E9E2F0E072
:100A5000908194FF05C0E2E0F1E090819E7F908359
:100A6000E2E0F1E0908190FF05C0E1E0F1E09081EB
:100A700090689083E0E0F1E0908190FBE2E0F1E0AB
:100A8000908190F99083E9E2F0E0908192FD05C0B9
:100A9000E2E0F1E090819E7F9083E9E2F0E09081D6
:100AA00093FF05C0E2E0F1E090819E7F9083E9E250
:100AB000F0E0908194FF05C0E2E0F1E090819E7F3C
:100AC0009083E2E0F1E0908190FF05C0E1E0F1E089
:100AD000908190689083E0E0F1E0908190FBE2E00B
:100AE000F1E0908190F99083E9E2F0E0908192FF4B
:100AF00005C0E2E0F1E090819E7F9083E9E2F0E0C2
:100B0000908193FD05C0E2E0F1E090819E7F9083AB
:100B1000E9E2F0E0908194FD05C0E2E0F1E090812F
:100B20009E7F9083E9E2F0E0908195FF05C0E2E0CE
:100B3000F1E090819E7F9083E2E0F1E0908190FF70
:100B400005C0E1E0F1E0908190689083E1E0F1E0A0
:100B5000908197FBE0E0F1E0908190F99083E0E0F4
:100B6000F1E0908190FBE5E2F0E0908193F99083D1
:100B7000E0E0F1E0908191609083E2E0F1E090812B
:100B80009D7F9083E0E0F1E0908190FBE2E0F1E076
:100B9000908192F99083E9E2F0E0908192FF05C0A4
:100BA000E2E0F1E090819B7F9083E9E2F0E09081C8
:100BB00093FD05C0E2E0F1E090819B7F9083E9E244
:100BC000F0E0908194FF05C0E2E0F1E090819B7F2E
:100BD0009083E2E0F1E0908192FF05C0E2E0F1E075
:100BE000908192609083E0E0F1E0908190FBE2E000
:100BF000F1E0908192F99083E9E2F0E0908192FD3A
:100C000005C0E2E0F1E090819B7F9083E9E2F0E0B3
:100C1000908193FF05C0E2E0F1E090819B7F90839B
:100C2000E9E2F0E0908194FF05C0E2E0F1E090811C
:100C30009B7F9083E2E0F1E0908192FF05C0E2E0CB
:100C4000F1E0908192609083E0E0F1E0908190FB90
:100C5000E2E0F1E0908192F99083E9E2F0E09081A6
:100C600092FF05C0E2E0F1E090819B7F9083E9E292
:100C7000F0E0908193FF05C0E2E0F1E090819B7F7E
:100C80009083E9E2F0E0908194FD05C0E2E0F1E0BC
:100C900090819B7F9083E2E0F1E0908192FF05C01C
:100CA000E2E0F1E0908192609083E0E0F1E09081F9
:100CB00090FBE2E0F1E0908192F99083E9E2F0E0CC
:100CC000908192FF05C0E2E0F1E090819B7F9083EC
:100CD000E9E2F0E0908194FD05C0E2E0F1E090816E
:100CE0009B7F9083E9E2F0E0908195FF05C0E2E010
:100CF000F1E090819B7F9083E2E0F1E0908192FFB0
:100D000005C0E2E0F1E0908192609083E2E0F1E0E2
:100D1000908191FBE0E0F1E0908190F99083E0E038
:100D2000F1E0908190FBE5E2F0E0908194F990830E
:100D3000E0E0F1E0908191609083E2E0F1E0908169
:100D4000977F9083E0E0F1E0908190FBE2E0F1E0BA
:100D5000908194F99083E9E2F0E0908192FD05C0E2
:100D6000E2E0F1E090819F7E9083E9E2F0E0908103
:100D700093FD05C0E2E0F1E090819F7E9083E9E27F
:100D8000F0E0908194FF05C0E2E0F1E090819F7E69
:100D90009083E9E2F0E0908195FF05C0E2E0F1E0A8
:100DA00090819F7E9083E2E0F1E0908194FF05C006
:100DB000E2E0F1E0908198609083E0E0F1E09081E2
:100DC00090FBE2E0F1E0908194F99083E9E2F0E0B9
:100DD000908192FD05C0E2E0F1E090819F7E9083DA
:100DE000E9E2F0E0908193FD05C0E2E0F1E090815E
:100DF0009F7E9083E9E2F0E0908194FD05C0E2E0FF
:100E0000F1E090819F7E9083E2E0F1E0908194FF99
:100E100005C0E2E0F1E0908198609083E0E0F1E0CD
:100E2000908190FBE2E0F1E0908194F99083E9E217
:100E3000F0E0908192FD05C0E2E0F1E090819F7EBC
:100E40009083E9E2F0E0908194FD05C0E2E0F1E0FA
:100E500090819F7E9083E9E2F0E0908195FF05C04C
:100E6000E2E0F1E090819F7E9083E2E0F1E090810A
:100E700094FF05C0E2E0F1E0908198609083E2E0A9
:100E8000F1E0908193FBE0E0F1E0908190F99083B4
:100E9000E0E0F1E0908190FBE5E2F0E0908195F9EF
:100EA0009083E0E0F1E0908191609083E2E0F1E0F6
:100EB00090819F7D9083E0E0F1E0908190FBE2E003
:100EC000F1E0908196F99083E9E2F0E0908192FD63
:100ED00005C0E2E0F1E090819F7B9083E9E2F0E0E1
:100EE000908193FD05C0E2E0F1E090819F7B9083CB
:100EF000E9E2F0E0908194FF05C0E2E0F1E090814A
:100F00009F7B9083E9E2F0E0908195FD05C0E2E0EF
:100F1000F1E090819F7B9083E2E0F1E0908196FF89
:100F200005C0E2E0F1E0908190629083E0E0F1E0C2
:100F3000908190FBE2E0F1E0908196F99083E9E204
:100F4000F0E0908192FD05C0E2E0F1E090819F7BAE
:100F50009083E9E2F0E0908193FF05C0E2E0F1E0E8
:100F600090819F7B9083E9E2F0E0908194FD05C041
:100F7000E2E0F1E090819F7B9083E9E2F0E09081F4
:100F800095FF05C0E2E0F1E090819F7B9083E2E075
:100F9000F1E0908196FF05C0E2E0F1E0908190627F
:100FA0009083E2E0F1E0908195FBE0E0F1E0908158
:100FB00090F99083E0E0F1E0908190FBE8E2F0E0CE
:100FC000908190F99083E0E0F1E0908191609083CE
:100FD000E2E0F1E090819F779083E0E0F1E09081A2
:100FE00090FBE3E0F1E0908190F99083E9E2F0E09A
:100FF000908192FD05C0E3E0F1E090819E7F9083B7
:10100000E9E2F0E0908193FD05C0E3E0F1E090813A
:101010009E7F9083E9E2F0E0908194FF05C0E3E0D9
:10102000F1E090819E7F9083E3E0F1E0908190FF7A
:1010300005C0E2E0F1E0908190689083E0E0F1E0AB
:10104000908190FBE3E0F1E0908190F99083E9E2F8
:10105000F0E0908192FD05C0E3E0F1E090819E7F99
:101060009083E9E2F0E0908193FD05C0E3E0F1E0D8
:1010700090819E7F9083E9E2F0E0908194FF05C02B
:10108000E3E0F1E090819E7F9083E9E2F0E09081DF
:1010900095FD05C0E3E0F1E090819E7F9083E3E061
:1010A000F1E0908190FF05C0E2E0F1E0908190686E
:1010B0009083E2E0F1E0908197FBE0E0F1E0908145
:1010C00090F99083E0E0F1E0908190FBE8E2F0E0BD
:1010D000908191F99083E0E0F1E0908191609083BC
:1010E000E3E0F1E090819D7F9083E0E0F1E090818A
:1010F00090FBE3E0F1E0908192F99083E9E2F0E087
:10110000908192FD05C0E3E0F1E090819B7F9083A8
:10111000E9E2F0E0908193FD05C0E3E0F1E0908129
:101120009B7F9083E9E2F0E0908194FF05C0E3E0CB
:10113000F1E090819B7F9083E3E0F1E0908192FF6A
:1011400005C0E3E0F1E0908192609083E0E0F1E09F
:10115000908190FBE3E0F1E0908192F99083E9E2E5
:10116000F0E0908192FD05C0E3E0F1E090819B7F8B
:101170009083E9E2F0E0908193FF05C0E3E0F1E0C5
:1011800090819B7F9083E9E2F0E0908194FD05C01F
:10119000E3E0F1E090819B7F9083E9E2F0E09081D1
:1011A00095FD05C0E3E0F1E090819B7F9083E3E053
:1011B000F1E0908192FF05C0E3E0F1E09081926060
:1011C0009083E0E0F1E0908190FBE3E0F1E090813A
:1011D00092F99083E9E2F0E0908192FD05C0E3E0AE
:1011E000F1E090819B7F9083E9E2F0E0908193FDB4
:1011F00005C0E3E0F1E090819B7F9083E9E2F0E0BD
:10120000908194FD05C0E3E0F1E090819B7F9083A5
:10121000E9E2F0E0908195FF05C0E3E0F1E0908124
:101220009B7F9083E3E0F1E0908192FF05C0E3E0D3
:10123000F1E0908192609083E3E0F1E0908191FB96
:10124000E0E0F1E0908190F99083E0E0F1E09081BE
:1012500090FBE8E2F0E0908192F99083E0E0F1E029
:10126000908191609083E3E0F1E09081977F90839B
:10127000E0E0F1E0908190FBE3E0F1E0908194F90F
:101280009083E9E2F0E0908192FD05C0E3E0F1E0B7
:1012900090819F7E9083E9E2F0E0908193FD05C00C
:1012A000E3E0F1E090819F7E9083E3E0F1E09081C4
:1012B00094FF05C0E3E0F1E0908198609083E0E066
:1012C000F1E0908190FBE3E0F1E0908194F990836C
:1012D000E9E2F0E0908192FD05C0E3E0F1E0908169
:1012E0009F7E9083E9E2F0E0908193FF05C0E3E008
:1012F000F1E090819F7E9083E9E2F0E0908194FD9F
:1013000005C0E3E0F1E090819F7E9083E3E0F1E0AF
:10131000908194FF05C0E3E0F1E0908198609083B4
:10132000E3E0F1E0908193FBE0E0F1E0908190F95F
:101330009083E0E0F1E0908190FBE8E2F0E09081C2
:1013400093F99083E0E0F1E0908191609083E3E095
:10135000F1E090819F7D9083E0E0F1E0908190FB4F
:10136000E3E0F1E0908196F99083E9E2F0E090818A
:1013700092FD05C0E3E0F1E090819F7B9083E9E27C
:10138000F0E0908193FD05C0E3E0F1E090819F7B68
:101390009083E9E2F0E0908194FF05C0E3E0F1E0A2
:1013A00090819F7B9083E9E2F0E0908195FF05C0FA
:1013B000E3E0F1E090819F7B9083E3E0F1E09081B6
:1013C00096FF05C0E3E0F1E0908190629083E0E059
:1013D000F1E0908190FBE3E0F1E0908196F9908359
:1013E000E9E2F0E0908192FD05C0E3E0F1E0908158
:1013F0009F7B9083E9E2F0E0908194FD05C0E3E0FB
:10140000F1E090819F7B9083E3E0F1E0908196FF93
:1014100005C0E3E0F1E0908190629083E3E0F1E0C9
:10142000908195FBE0E0F1E0908190F99083E0E01D
:10143000F1E0908190FBE8E2F0E0908194F99083F4
:10144000E0E0F1E0908191609083E3E0F1E0908151
:101450009F779083E0E0F1E0908190FBE4E0F1E0A1
:10146000908190F99083E9E2F0E0908192FD05C0CF
:10147000E4E0F1E090819E7F9083E9E2F0E09081EA
:1014800093FD05C0E4E0F1E090819E7F9083E9E266
:10149000F0E0908194FD05C0E4E0F1E090819E7F52
:1014A0009083E4E0F1E0908190FF05C0E3E0F1E09B
:1014B000908190689083E0E0F1E0908190FBE4E01F
:1014C000F1E0908190F99083E9E2F0E0908192FD63
:1014D00005C0E4E0F1E090819E7F9083E9E2F0E0D6
:1014E000908193FF05C0E4E0F1E090819E7F9083BE
:1014F000E9E2F0E0908194FD05C0E4E0F1E0908144
:101500009E7F9083E4E0F1E0908190FF05C0E3E0EE
:10151000F1E0908190689083E0E0F1E0908190FBB1
:10152000E4E0F1E0908190F99083E9E2F0E09081CD
:1015300092FD05C0E4E0F1E090819E7F9083E9E2B6
:10154000F0E0908193FD05C0E4E0F1E090819E7FA2
:101550009083E9E2F0E0908195FD05C0E4E0F1E0E0
:1015600090819E7F9083E4E0F1E0908190FF05C040
:10157000E3E0F1E0908190689083E3E0F1E0908116
:1015800097FBE0E0F1E0908190F99083E0E0F1E0FA
:10159000908190FBE8E2F0E0908195F99083E6E697
:0615A000F0E00994FFCF0A
:00000001FF
