:020000020000FC
:10000000E5E2F0E00994189518951895189518955B
:100010001895189518951895189518951895189578
:100020001895189518951895189518951895189568
:100030001895189518951895189518951895189558
:1000400018951895189518951895E0E8F0E090E047
:100050009193E1E8F0E09CE09193E9E8F0E092E030
:100060009193E8E8F0E090E79193F894A89598E1EF
:10007000E0E6F0E0908399E290837894EEE5F0E09A
:1000800098E09193EDE5F0E09FEF9193A0E0B9E067
:1000900000E080E098E00E930197E9F7E4E2F0E0F9
:1000A00090E09193E5E2F0E090E09193E7E2F0E0F8
:1000B00090E09193E8E2F0E090E09193EAE2F0E0E2
:1000C00090E49193EBE2F0E09CE09193E6E3F0E0C2
:1000D000908191FFFDCFE6E3F0E090819260908304
:1000E000A895E0E0F1E0908191609083E9E2F0E092
:1000F000908193FF05C0E0E0F1E090819E7F9083C6
:10010000E0E0F1E090819D7F9083E0E0F1E090817C
:1001100090FB92F99083E9E2F0E0908192FD05C0B6
:10012000E0E0F1E090819B7F9083E0E0F1E090815E
:1001300092FF05C0E0E0F1E0908192609083E0E002
:10014000F1E0908190FB92F99083EBE2F0E09081F6
:1001500096FD05C0E0E0F1E090819B7F9083E0E0B8
:10016000F1E0908192FF05C0E0E0F1E090819260C3
:100170009083E0E0F1E0908191FB90F99083E0E0E2
:10018000F1E0908190FBEBE2F0E0908196F99083B2
:08019000E6E6F0E00994FFCF60
:00000001FF
