:020000040000FA
:1000000083018A01000008280900000000000000A8
:100010006400883095001330960000308E00003068
:100020008F00313090000B3097005F30A0002130FE
:1000300084008001840AA00B192807309F0000303B
:100040008500003086008316FF308500FE30860074
:10005000811383120C19A0140C1DA0100C1D2E2846
:100060000C11640020140518362820108310201865
:0E007000831483180614831C061029283E28CA
:02400E00623F0F
:00000001FF
