:020000020000FC
:10000000E5E2F0E00994189518951895189518955B
:100010001895189518951895189518951895189578
:100020001895189518951895189518951895189568
:100030001895189518951895189518951895189558
:1000400018951895189518951895E0E8F0E090E047
:100050009193E1E8F0E09CE09193E9E8F0E092E030
:100060009193E8E8F0E090E79193F894A89598E1EF
:10007000E0E6F0E0908399E290837894EEE5F0E09A
:1000800098E09193EDE5F0E09FEF9193A0E0B9E067
:1000900000E080E098E00E930197E9F7E4E2F0E0F9
:1000A00093E09193E5E2F0E090E09193E7E2F0E0F5
:1000B00090E09193E8E2F0E090E09193EAE2F0E0E2
:1000C00090EF9193EBE2F0E09CE09193E6E3F0E0B7
:1000D000908191FFFDCFE6E3F0E090819260908304
:1000E000A895E0E0F1E0908191609083E9E2F0E092
:1000F000908192FD05C0E0E0F1E090819E7F9083C9
:10010000E0E0F1E0908190FB91F99083E0E0F1E094
:10011000908191609083E9E2F0E0908193FD05C0C9
:10012000E0E0F1E090819E7F9083E0E0F1E090815B
:1001300090FB92F99083E0E0F1E0908191609083F0
:10014000E0E0F1E09081977F9083E0E0F1E0908142
:1001500090FB94F99083E9E2F0E0908192FF05C072
:10016000E0E0F1E090819F7E9083E9E2F0E0908111
:1001700093FF05C0E0E0F1E090819F7E9083E0E096
:10018000F1E0908194FF05C0E0E0F1E0908198609B
:100190009083E0E0F1E0908190FB94F99083E9E2B4
:1001A000F0E0908192FF05C0E0E0F1E090819F7E59
:1001B0009083E9E2F0E0908193FD05C0E0E0F1E09A
:1001C00090819F7E9083E0E0F1E0908194FF05C0F4
:1001D000E0E0F1E0908198609083E0E0F1E09081D0
:1001E00093FB90F99083E0E0F1E0908190FBEBE2EB
:1001F000F0E0908194F99083E0E0F1E090819160EB
:100200009083E9E2F0E0908192FD05C0E0E0F1E04A
:1002100090819E7F9083E9E2F0E0908193FD05C09C
:10022000E0E0F1E090819E7F9083E0E0F1E090815A
:1002300090FBEBE2F0E0908195F99083E0E0F1E053
:10024000908191609083E9E2F0E0908192FD05C099
:10025000E0E0F1E090819E7F9083E9E2F0E0908120
:1002600093FF05C0E0E0F1E090819E7F9083E0E0A5
:10027000F1E0908190FBEBE2F0E0908196F99083C1
:10028000E0E0F1E0908191609083E0E0F1E0908126
:100290009F7D9083E0E0F1E0908190FB96F9908360
:1002A000E9E2F0E0908192FD05C0E0E0F1E09081AC
:1002B0009F7B9083E9E2F0E0908193FF05C0E0E04E
:1002C000F1E090819F7B9083E0E0F1E0908196FFE8
:1002D00005C0E0E0F1E0908190629083E0E0F1E021
:1002E000908190FB96F99083E9E2F0E0908192FD95
:1002F00005C0E0E0F1E090819F7B9083E9E2F0E0CF
:10030000908193FD05C0E0E0F1E090819F7B9083B8
:10031000E0E0F1E0908196FF05C0E0E0F1E090813F
:1003200090629083E0E0F1E0908195FB90F99083FA
:10033000E0E0F1E0908190FBEBE2F0E0908197F952
:100340009083E0E0F1E0908191609083E9E2F0E059
:10035000908192FF05C0E0E0F1E090819E7F908364
:10036000E9E2F0E0908193FD05C0E0E0F1E09081EA
:100370009E7F9083E0E0F1E0908190FBE5E2F0E089
:10038000908190F99083E0E0F1E09081916090831A
:10039000E9E2F0E0908192FF05C0E0E0F1E09081B9
:1003A0009E7F9083E9E2F0E0908193FF05C0E0E05A
:1003B000F1E090819E7F9083E0E0F1E0908190FBFE
:1003C000E5E2F0E0908191F99083E6E6F0E00994AF
:0203D000FFCF5D
:00000001FF
